{
  "_format": "hh-sol-artifact-1",
  "contractName": "StakingERC1155",
  "sourceName": "contracts/Staking.sol",
  "abi": [
    {
      "inputs": [
        {
          "internalType": "address",
          "name": "_tokenAddress",
          "type": "address"
        }
      ],
      "stateMutability": "nonpayable",
      "type": "constructor"
    },
    {
      "anonymous": false,
      "inputs": [
        {
          "indexed": true,
          "internalType": "address",
          "name": "previousOwner",
          "type": "address"
        },
        {
          "indexed": true,
          "internalType": "address",
          "name": "newOwner",
          "type": "address"
        }
      ],
      "name": "OwnershipTransferred",
      "type": "event"
    },
    {
      "anonymous": false,
      "inputs": [
        {
          "indexed": true,
          "internalType": "address",
          "name": "user",
          "type": "address"
        },
        {
          "indexed": false,
          "internalType": "string",
          "name": "networkAddress",
          "type": "string"
        },
        {
          "indexed": false,
          "internalType": "uint256",
          "name": "updatedBalance",
          "type": "uint256"
        },
        {
          "indexed": false,
          "internalType": "uint256",
          "name": "id",
          "type": "uint256"
        }
      ],
      "name": "UpdateDataBase",
      "type": "event"
    },
    {
      "inputs": [],
      "name": "HashToken",
      "outputs": [
        {
          "internalType": "contract IERC1155",
          "name": "",
          "type": "address"
        }
      ],
      "stateMutability": "view",
      "type": "function"
    },
    {
      "inputs": [
        {
          "internalType": "uint256",
          "name": "_id",
          "type": "uint256"
        },
        {
          "internalType": "bool",
          "name": "_active",
          "type": "bool"
        }
      ],
      "name": "activateBatch",
      "outputs": [],
      "stateMutability": "nonpayable",
      "type": "function"
    },
    {
      "inputs": [
        {
          "internalType": "address",
          "name": "_newTokenAddress",
          "type": "address"
        }
      ],
      "name": "modifyTokenAddress",
      "outputs": [],
      "stateMutability": "nonpayable",
      "type": "function"
    },
    {
      "inputs": [
        {
          "internalType": "address",
          "name": "operator",
          "type": "address"
        },
        {
          "internalType": "address",
          "name": "from",
          "type": "address"
        },
        {
          "internalType": "uint256",
          "name": "id",
          "type": "uint256"
        },
        {
          "internalType": "uint256",
          "name": "value",
          "type": "uint256"
        },
        {
          "internalType": "bytes",
          "name": "data",
          "type": "bytes"
        }
      ],
      "name": "onERC1155Received",
      "outputs": [
        {
          "internalType": "bytes4",
          "name": "",
          "type": "bytes4"
        }
      ],
      "stateMutability": "nonpayable",
      "type": "function"
    },
    {
      "inputs": [],
      "name": "owner",
      "outputs": [
        {
          "internalType": "address",
          "name": "",
          "type": "address"
        }
      ],
      "stateMutability": "view",
      "type": "function"
    },
    {
      "inputs": [],
      "name": "renounceOwnership",
      "outputs": [],
      "stateMutability": "nonpayable",
      "type": "function"
    },
    {
      "inputs": [
        {
          "internalType": "uint256",
          "name": "_id",
          "type": "uint256"
        },
        {
          "internalType": "uint256",
          "name": "_amount",
          "type": "uint256"
        },
        {
          "internalType": "string",
          "name": "_networkAddress",
          "type": "string"
        }
      ],
      "name": "stake",
      "outputs": [],
      "stateMutability": "nonpayable",
      "type": "function"
    },
    {
      "inputs": [],
      "name": "tokenAddress",
      "outputs": [
        {
          "internalType": "address",
          "name": "",
          "type": "address"
        }
      ],
      "stateMutability": "view",
      "type": "function"
    },
    {
      "inputs": [
        {
          "internalType": "address",
          "name": "newOwner",
          "type": "address"
        }
      ],
      "name": "transferOwnership",
      "outputs": [],
      "stateMutability": "nonpayable",
      "type": "function"
    },
    {
      "inputs": [
        {
          "internalType": "uint256",
          "name": "_id",
          "type": "uint256"
        },
        {
          "internalType": "uint256",
          "name": "_amount",
          "type": "uint256"
        }
      ],
      "name": "unstake",
      "outputs": [],
      "stateMutability": "nonpayable",
      "type": "function"
    }
  ],
  "bytecode": "0x60806040523480156200001157600080fd5b5060405162001898380380620018988339818101604052810190620000379190620001e5565b620000576200004b6200010260201b60201c565b6200010a60201b60201c565b80600260006101000a81548173ffffffffffffffffffffffffffffffffffffffff021916908373ffffffffffffffffffffffffffffffffffffffff160217905550600260009054906101000a900473ffffffffffffffffffffffffffffffffffffffff16600160006101000a81548173ffffffffffffffffffffffffffffffffffffffff021916908373ffffffffffffffffffffffffffffffffffffffff160217905550506200026a565b600033905090565b60008060009054906101000a900473ffffffffffffffffffffffffffffffffffffffff169050816000806101000a81548173ffffffffffffffffffffffffffffffffffffffff021916908373ffffffffffffffffffffffffffffffffffffffff1602179055508173ffffffffffffffffffffffffffffffffffffffff168173ffffffffffffffffffffffffffffffffffffffff167f8be0079c531659141344cd1fd0a4f28419497f9722a3daafe3b4186f6b6457e060405160405180910390a35050565b600081519050620001df8162000250565b92915050565b600060208284031215620001fe57620001fd6200024b565b5b60006200020e84828501620001ce565b91505092915050565b600062000224826200022b565b9050919050565b600073ffffffffffffffffffffffffffffffffffffffff82169050919050565b600080fd5b6200025b8162000217565b81146200026757600080fd5b50565b61161e806200027a6000396000f3fe608060405234801561001057600080fd5b506004361061009e5760003560e01c80638da5cb5b116100665780638da5cb5b1461011f5780639d76ea581461013d5780639e2c8a5b1461015b578063f23a6e6114610177578063f2fde38b146101a75761009e565b80633e8b588d146100a3578063466b9f2e146100bf5780634dcb48b8146100db578063650955d4146100f7578063715018a614610115575b600080fd5b6100bd60048036038101906100b89190610e78565b6101c3565b005b6100d960048036038101906100d49190610d31565b610407565b005b6100f560048036038101906100f09190610df8565b6104c7565b005b6100ff610572565b60405161010c9190611099565b60405180910390f35b61011d610598565b005b610127610620565b604051610134919061100b565b60405180910390f35b610145610649565b604051610152919061100b565b60405180910390f35b61017560048036038101906101709190610e38565b61066f565b005b610191600480360381019061018c9190610d5e565b610996565b60405161019e919061107e565b60405180910390f35b6101c160048036038101906101bc9190610d31565b6109c5565b005b600115156004600085815260200190815260200160002060009054906101000a900460ff1615151461022a576040517f08c379a000000000000000000000000000000000000000000000000000000000815260040161022190611152565b60405180910390fd5b600160009054906101000a900473ffffffffffffffffffffffffffffffffffffffff1673ffffffffffffffffffffffffffffffffffffffff1663f242432a333086866040518563ffffffff1660e01b815260040161028b9493929190611026565b600060405180830381600087803b1580156102a557600080fd5b505af11580156102b9573d6000803e3d6000fd5b50505050600082600360003373ffffffffffffffffffffffffffffffffffffffff1673ffffffffffffffffffffffffffffffffffffffff16815260200190815260200160002060008681526020019081526020016000206001015461031e91906111f5565b9050604051806040016040528083815260200182815250600360003373ffffffffffffffffffffffffffffffffffffffff1673ffffffffffffffffffffffffffffffffffffffff168152602001908152602001600020600086815260200190815260200160002060008201518160000190805190602001906103a1929190610b89565b50602082015181600101559050503373ffffffffffffffffffffffffffffffffffffffff167f865f1eec80fe459fd5d75c72aa4642a08d851c98a33bb9e8361b5053e2526d2e8383876040516103f9939291906110b4565b60405180910390a250505050565b61040f610abd565b73ffffffffffffffffffffffffffffffffffffffff1661042d610620565b73ffffffffffffffffffffffffffffffffffffffff1614610483576040517f08c379a000000000000000000000000000000000000000000000000000000000815260040161047a90611132565b60405180910390fd5b80600160006101000a81548173ffffffffffffffffffffffffffffffffffffffff021916908373ffffffffffffffffffffffffffffffffffffffff16021790555050565b6104cf610abd565b73ffffffffffffffffffffffffffffffffffffffff166104ed610620565b73ffffffffffffffffffffffffffffffffffffffff1614610543576040517f08c379a000000000000000000000000000000000000000000000000000000000815260040161053a90611132565b60405180910390fd5b806004600084815260200190815260200160002060006101000a81548160ff0219169083151502179055505050565b600160009054906101000a900473ffffffffffffffffffffffffffffffffffffffff1681565b6105a0610abd565b73ffffffffffffffffffffffffffffffffffffffff166105be610620565b73ffffffffffffffffffffffffffffffffffffffff1614610614576040517f08c379a000000000000000000000000000000000000000000000000000000000815260040161060b90611132565b60405180910390fd5b61061e6000610ac5565b565b60008060009054906101000a900473ffffffffffffffffffffffffffffffffffffffff16905090565b600260009054906101000a900473ffffffffffffffffffffffffffffffffffffffff1681565b60018161067c919061124b565b600360003373ffffffffffffffffffffffffffffffffffffffff1673ffffffffffffffffffffffffffffffffffffffff16815260200190815260200160002060008481526020019081526020016000206001015411610710576040517f08c379a000000000000000000000000000000000000000000000000000000000815260040161070790611112565b60405180910390fd5b600160009054906101000a900473ffffffffffffffffffffffffffffffffffffffff1673ffffffffffffffffffffffffffffffffffffffff1663f242432a303385856040518563ffffffff1660e01b81526004016107719493929190611026565b600060405180830381600087803b15801561078b57600080fd5b505af115801561079f573d6000803e3d6000fd5b50505050600081600360003373ffffffffffffffffffffffffffffffffffffffff1673ffffffffffffffffffffffffffffffffffffffff168152602001908152602001600020600085815260200190815260200160002060010154610804919061124b565b90506000600360003373ffffffffffffffffffffffffffffffffffffffff1673ffffffffffffffffffffffffffffffffffffffff168152602001908152602001600020600085815260200190815260200160002060000180546108669061136b565b80601f01602080910402602001604051908101604052809291908181526020018280546108929061136b565b80156108df5780601f106108b4576101008083540402835291602001916108df565b820191906000526020600020905b8154815290600101906020018083116108c257829003601f168201915b5050505050905081600360003373ffffffffffffffffffffffffffffffffffffffff1673ffffffffffffffffffffffffffffffffffffffff1681526020019081526020016000206000868152602001908152602001600020600101819055503373ffffffffffffffffffffffffffffffffffffffff167f865f1eec80fe459fd5d75c72aa4642a08d851c98a33bb9e8361b5053e2526d2e828487604051610988939291906110b4565b60405180910390a250505050565b60007ff23a6e612e1ff4830e658fe43f4e3cb4a5f8170bd5d9e69fb5d7a7fa9e4fdf9790509695505050505050565b6109cd610abd565b73ffffffffffffffffffffffffffffffffffffffff166109eb610620565b73ffffffffffffffffffffffffffffffffffffffff1614610a41576040517f08c379a0000000000000000000000000000000000000000000000000000000008152600401610a3890611132565b60405180910390fd5b600073ffffffffffffffffffffffffffffffffffffffff168173ffffffffffffffffffffffffffffffffffffffff161415610ab1576040517f08c379a0000000000000000000000000000000000000000000000000000000008152600401610aa8906110f2565b60405180910390fd5b610aba81610ac5565b50565b600033905090565b60008060009054906101000a900473ffffffffffffffffffffffffffffffffffffffff169050816000806101000a81548173ffffffffffffffffffffffffffffffffffffffff021916908373ffffffffffffffffffffffffffffffffffffffff1602179055508173ffffffffffffffffffffffffffffffffffffffff168173ffffffffffffffffffffffffffffffffffffffff167f8be0079c531659141344cd1fd0a4f28419497f9722a3daafe3b4186f6b6457e060405160405180910390a35050565b828054610b959061136b565b90600052602060002090601f016020900481019282610bb75760008555610bfe565b82601f10610bd057805160ff1916838001178555610bfe565b82800160010185558215610bfe579182015b82811115610bfd578251825591602001919060010190610be2565b5b509050610c0b9190610c0f565b5090565b5b80821115610c28576000816000905550600101610c10565b5090565b6000610c3f610c3a84611197565b611172565b905082815260208101848484011115610c5b57610c5a61146a565b5b610c66848285611329565b509392505050565b600081359050610c7d816115a3565b92915050565b600081359050610c92816115ba565b92915050565b60008083601f840112610cae57610cad611460565b5b8235905067ffffffffffffffff811115610ccb57610cca61145b565b5b602083019150836001820283011115610ce757610ce6611465565b5b9250929050565b600082601f830112610d0357610d02611460565b5b8135610d13848260208601610c2c565b91505092915050565b600081359050610d2b816115d1565b92915050565b600060208284031215610d4757610d46611474565b5b6000610d5584828501610c6e565b91505092915050565b60008060008060008060a08789031215610d7b57610d7a611474565b5b6000610d8989828a01610c6e565b9650506020610d9a89828a01610c6e565b9550506040610dab89828a01610d1c565b9450506060610dbc89828a01610d1c565b935050608087013567ffffffffffffffff811115610ddd57610ddc61146f565b5b610de989828a01610c98565b92509250509295509295509295565b60008060408385031215610e0f57610e0e611474565b5b6000610e1d85828601610d1c565b9250506020610e2e85828601610c83565b9150509250929050565b60008060408385031215610e4f57610e4e611474565b5b6000610e5d85828601610d1c565b9250506020610e6e85828601610d1c565b9150509250929050565b600080600060608486031215610e9157610e90611474565b5b6000610e9f86828701610d1c565b9350506020610eb086828701610d1c565b925050604084013567ffffffffffffffff811115610ed157610ed061146f565b5b610edd86828701610cee565b9150509250925092565b610ef08161127f565b82525050565b610eff8161129d565b82525050565b610f0e816112f3565b82525050565b6000610f1f826111c8565b610f2981856111e4565b9350610f39818560208601611338565b610f4281611479565b840191505092915050565b6000610f5a6026836111e4565b9150610f658261148a565b604082019050919050565b6000610f7d6033836111e4565b9150610f88826114d9565b604082019050919050565b6000610fa06020836111e4565b9150610fab82611528565b602082019050919050565b6000610fc3603a836111e4565b9150610fce82611551565b604082019050919050565b6000610fe66000836111d3565b9150610ff1826115a0565b600082019050919050565b611005816112e9565b82525050565b60006020820190506110206000830184610ee7565b92915050565b600060a08201905061103b6000830187610ee7565b6110486020830186610ee7565b6110556040830185610ffc565b6110626060830184610ffc565b818103608083015261107381610fd9565b905095945050505050565b60006020820190506110936000830184610ef6565b92915050565b60006020820190506110ae6000830184610f05565b92915050565b600060608201905081810360008301526110ce8186610f14565b90506110dd6020830185610ffc565b6110ea6040830184610ffc565b949350505050565b6000602082019050818103600083015261110b81610f4d565b9050919050565b6000602082019050818103600083015261112b81610f70565b9050919050565b6000602082019050818103600083015261114b81610f93565b9050919050565b6000602082019050818103600083015261116b81610fb6565b9050919050565b600061117c61118d565b9050611188828261139d565b919050565b6000604051905090565b600067ffffffffffffffff8211156111b2576111b161142c565b5b6111bb82611479565b9050602081019050919050565b600081519050919050565b600082825260208201905092915050565b600082825260208201905092915050565b6000611200826112e9565b915061120b836112e9565b9250827fffffffffffffffffffffffffffffffffffffffffffffffffffffffffffffffff038211156112405761123f6113ce565b5b828201905092915050565b6000611256826112e9565b9150611261836112e9565b925082821015611274576112736113ce565b5b828203905092915050565b600061128a826112c9565b9050919050565b60008115159050919050565b60007fffffffff0000000000000000000000000000000000000000000000000000000082169050919050565b600073ffffffffffffffffffffffffffffffffffffffff82169050919050565b6000819050919050565b60006112fe82611305565b9050919050565b600061131082611317565b9050919050565b6000611322826112c9565b9050919050565b82818337600083830152505050565b60005b8381101561135657808201518184015260208101905061133b565b83811115611365576000848401525b50505050565b6000600282049050600182168061138357607f821691505b60208210811415611397576113966113fd565b5b50919050565b6113a682611479565b810181811067ffffffffffffffff821117156113c5576113c461142c565b5b80604052505050565b7f4e487b7100000000000000000000000000000000000000000000000000000000600052601160045260246000fd5b7f4e487b7100000000000000000000000000000000000000000000000000000000600052602260045260246000fd5b7f4e487b7100000000000000000000000000000000000000000000000000000000600052604160045260246000fd5b600080fd5b600080fd5b600080fd5b600080fd5b600080fd5b600080fd5b6000601f19601f8301169050919050565b7f4f776e61626c653a206e6577206f776e657220697320746865207a65726f206160008201527f6464726573730000000000000000000000000000000000000000000000000000602082015250565b7f596f752061726520747279696e6720746f207769746864726177206d6f72652060008201527f746f6b656e207468616e20796f75206861766500000000000000000000000000602082015250565b7f4f776e61626c653a2063616c6c6572206973206e6f7420746865206f776e6572600082015250565b7f596f752063616e2774207374616b65207468697320746f6b656e207965742c2060008201527f697420686173206e6f74206265656e2061637469766174656421000000000000602082015250565b50565b6115ac8161127f565b81146115b757600080fd5b50565b6115c381611291565b81146115ce57600080fd5b50565b6115da816112e9565b81146115e557600080fd5b5056fea264697066735822122045a57b5013a6c661117a6bca9e3046d921949f9764c217ea2dd858eadd8213bc64736f6c63430008070033",
  "linkReferences": {},
  "deployedLinkReferences": {}
}