{
  "_format": "hh-sol-artifact-1",
  "contractName": "ERC1155HashToken",
  "sourceName": "contracts/ERC1155HashToken.sol",
  "abi": [
    {
      "inputs": [],
      "stateMutability": "nonpayable",
      "type": "constructor"
    },
    {
      "anonymous": false,
      "inputs": [
        {
          "indexed": true,
          "internalType": "address",
          "name": "account",
          "type": "address"
        },
        {
          "indexed": true,
          "internalType": "address",
          "name": "operator",
          "type": "address"
        },
        {
          "indexed": false,
          "internalType": "bool",
          "name": "approved",
          "type": "bool"
        }
      ],
      "name": "ApprovalForAll",
      "type": "event"
    },
    {
      "anonymous": false,
      "inputs": [
        {
          "indexed": true,
          "internalType": "address",
          "name": "previousOwner",
          "type": "address"
        },
        {
          "indexed": true,
          "internalType": "address",
          "name": "newOwner",
          "type": "address"
        }
      ],
      "name": "OwnershipTransferred",
      "type": "event"
    },
    {
      "anonymous": false,
      "inputs": [
        {
          "indexed": true,
          "internalType": "address",
          "name": "operator",
          "type": "address"
        },
        {
          "indexed": true,
          "internalType": "address",
          "name": "from",
          "type": "address"
        },
        {
          "indexed": true,
          "internalType": "address",
          "name": "to",
          "type": "address"
        },
        {
          "indexed": false,
          "internalType": "uint256[]",
          "name": "ids",
          "type": "uint256[]"
        },
        {
          "indexed": false,
          "internalType": "uint256[]",
          "name": "values",
          "type": "uint256[]"
        }
      ],
      "name": "TransferBatch",
      "type": "event"
    },
    {
      "anonymous": false,
      "inputs": [
        {
          "indexed": true,
          "internalType": "address",
          "name": "operator",
          "type": "address"
        },
        {
          "indexed": true,
          "internalType": "address",
          "name": "from",
          "type": "address"
        },
        {
          "indexed": true,
          "internalType": "address",
          "name": "to",
          "type": "address"
        },
        {
          "indexed": false,
          "internalType": "uint256",
          "name": "id",
          "type": "uint256"
        },
        {
          "indexed": false,
          "internalType": "uint256",
          "name": "value",
          "type": "uint256"
        }
      ],
      "name": "TransferSingle",
      "type": "event"
    },
    {
      "anonymous": false,
      "inputs": [
        {
          "indexed": false,
          "internalType": "string",
          "name": "value",
          "type": "string"
        },
        {
          "indexed": true,
          "internalType": "uint256",
          "name": "id",
          "type": "uint256"
        }
      ],
      "name": "URI",
      "type": "event"
    },
    {
      "inputs": [
        {
          "internalType": "address",
          "name": "account",
          "type": "address"
        },
        {
          "internalType": "uint256",
          "name": "id",
          "type": "uint256"
        }
      ],
      "name": "balanceOf",
      "outputs": [
        {
          "internalType": "uint256",
          "name": "",
          "type": "uint256"
        }
      ],
      "stateMutability": "view",
      "type": "function"
    },
    {
      "inputs": [
        {
          "internalType": "address[]",
          "name": "accounts",
          "type": "address[]"
        },
        {
          "internalType": "uint256[]",
          "name": "ids",
          "type": "uint256[]"
        }
      ],
      "name": "balanceOfBatch",
      "outputs": [
        {
          "internalType": "uint256[]",
          "name": "",
          "type": "uint256[]"
        }
      ],
      "stateMutability": "view",
      "type": "function"
    },
    {
      "inputs": [
        {
          "internalType": "uint256",
          "name": "_id",
          "type": "uint256"
        },
        {
          "internalType": "uint256",
          "name": "_maxSupply",
          "type": "uint256"
        }
      ],
      "name": "changeMaxSupply",
      "outputs": [],
      "stateMutability": "nonpayable",
      "type": "function"
    },
    {
      "inputs": [
        {
          "internalType": "uint256",
          "name": "_id",
          "type": "uint256"
        },
        {
          "internalType": "uint256",
          "name": "_price",
          "type": "uint256"
        }
      ],
      "name": "changePrice",
      "outputs": [],
      "stateMutability": "nonpayable",
      "type": "function"
    },
    {
      "inputs": [
        {
          "internalType": "string",
          "name": "_newBaseURI",
          "type": "string"
        },
        {
          "internalType": "uint256",
          "name": "_id",
          "type": "uint256"
        }
      ],
      "name": "changeUri",
      "outputs": [],
      "stateMutability": "nonpayable",
      "type": "function"
    },
    {
      "inputs": [
        {
          "internalType": "uint256",
          "name": "_id",
          "type": "uint256"
        },
        {
          "internalType": "string",
          "name": "_uri",
          "type": "string"
        },
        {
          "internalType": "uint256",
          "name": "_maxSupply",
          "type": "uint256"
        },
        {
          "internalType": "uint256",
          "name": "_price",
          "type": "uint256"
        }
      ],
      "name": "createBatch",
      "outputs": [],
      "stateMutability": "nonpayable",
      "type": "function"
    },
    {
      "inputs": [
        {
          "internalType": "uint256",
          "name": "_id",
          "type": "uint256"
        }
      ],
      "name": "getBatchInfo",
      "outputs": [
        {
          "internalType": "uint256",
          "name": "",
          "type": "uint256"
        },
        {
          "internalType": "uint256",
          "name": "",
          "type": "uint256"
        },
        {
          "internalType": "uint256",
          "name": "",
          "type": "uint256"
        }
      ],
      "stateMutability": "view",
      "type": "function"
    },
    {
      "inputs": [
        {
          "internalType": "address",
          "name": "account",
          "type": "address"
        },
        {
          "internalType": "address",
          "name": "operator",
          "type": "address"
        }
      ],
      "name": "isApprovedForAll",
      "outputs": [
        {
          "internalType": "bool",
          "name": "",
          "type": "bool"
        }
      ],
      "stateMutability": "view",
      "type": "function"
    },
    {
      "inputs": [
        {
          "internalType": "uint256",
          "name": "_id",
          "type": "uint256"
        },
        {
          "internalType": "uint256",
          "name": "_amount",
          "type": "uint256"
        }
      ],
      "name": "mint",
      "outputs": [],
      "stateMutability": "payable",
      "type": "function"
    },
    {
      "inputs": [],
      "name": "owner",
      "outputs": [
        {
          "internalType": "address",
          "name": "",
          "type": "address"
        }
      ],
      "stateMutability": "view",
      "type": "function"
    },
    {
      "inputs": [],
      "name": "paused",
      "outputs": [
        {
          "internalType": "bool",
          "name": "",
          "type": "bool"
        }
      ],
      "stateMutability": "view",
      "type": "function"
    },
    {
      "inputs": [],
      "name": "renounceOwnership",
      "outputs": [],
      "stateMutability": "nonpayable",
      "type": "function"
    },
    {
      "inputs": [
        {
          "internalType": "address",
          "name": "from",
          "type": "address"
        },
        {
          "internalType": "address",
          "name": "to",
          "type": "address"
        },
        {
          "internalType": "uint256[]",
          "name": "ids",
          "type": "uint256[]"
        },
        {
          "internalType": "uint256[]",
          "name": "amounts",
          "type": "uint256[]"
        },
        {
          "internalType": "bytes",
          "name": "data",
          "type": "bytes"
        }
      ],
      "name": "safeBatchTransferFrom",
      "outputs": [],
      "stateMutability": "nonpayable",
      "type": "function"
    },
    {
      "inputs": [
        {
          "internalType": "address",
          "name": "from",
          "type": "address"
        },
        {
          "internalType": "address",
          "name": "to",
          "type": "address"
        },
        {
          "internalType": "uint256",
          "name": "id",
          "type": "uint256"
        },
        {
          "internalType": "uint256",
          "name": "amount",
          "type": "uint256"
        },
        {
          "internalType": "bytes",
          "name": "data",
          "type": "bytes"
        }
      ],
      "name": "safeTransferFrom",
      "outputs": [],
      "stateMutability": "nonpayable",
      "type": "function"
    },
    {
      "inputs": [
        {
          "internalType": "address",
          "name": "operator",
          "type": "address"
        },
        {
          "internalType": "bool",
          "name": "approved",
          "type": "bool"
        }
      ],
      "name": "setApprovalForAll",
      "outputs": [],
      "stateMutability": "nonpayable",
      "type": "function"
    },
    {
      "inputs": [
        {
          "internalType": "bool",
          "name": "_paused",
          "type": "bool"
        }
      ],
      "name": "setPaused",
      "outputs": [],
      "stateMutability": "nonpayable",
      "type": "function"
    },
    {
      "inputs": [
        {
          "internalType": "bytes4",
          "name": "interfaceId",
          "type": "bytes4"
        }
      ],
      "name": "supportsInterface",
      "outputs": [
        {
          "internalType": "bool",
          "name": "",
          "type": "bool"
        }
      ],
      "stateMutability": "view",
      "type": "function"
    },
    {
      "inputs": [
        {
          "internalType": "address",
          "name": "newOwner",
          "type": "address"
        }
      ],
      "name": "transferOwnership",
      "outputs": [],
      "stateMutability": "nonpayable",
      "type": "function"
    },
    {
      "inputs": [
        {
          "internalType": "uint256",
          "name": "_id",
          "type": "uint256"
        }
      ],
      "name": "uri",
      "outputs": [
        {
          "internalType": "string",
          "name": "",
          "type": "string"
        }
      ],
      "stateMutability": "view",
      "type": "function"
    }
  ],
  "bytecode": "0x60806040526000600360146101000a81548160ff0219169083151502179055503480156200002c57600080fd5b50604051806020016040528060008152506200004e816200008660201b60201c565b506200006f62000063620000a260201b60201c565b620000aa60201b60201c565b62000080336200017060201b60201c565b620004e0565b80600290805190602001906200009e929190620002b0565b5050565b600033905090565b6000600360009054906101000a900473ffffffffffffffffffffffffffffffffffffffff16905081600360006101000a81548173ffffffffffffffffffffffffffffffffffffffff021916908373ffffffffffffffffffffffffffffffffffffffff1602179055508173ffffffffffffffffffffffffffffffffffffffff168173ffffffffffffffffffffffffffffffffffffffff167f8be0079c531659141344cd1fd0a4f28419497f9722a3daafe3b4186f6b6457e060405160405180910390a35050565b62000180620000a260201b60201c565b73ffffffffffffffffffffffffffffffffffffffff16620001a66200028660201b60201c565b73ffffffffffffffffffffffffffffffffffffffff1614620001ff576040517f08c379a0000000000000000000000000000000000000000000000000000000008152600401620001f690620003d0565b60405180910390fd5b600073ffffffffffffffffffffffffffffffffffffffff168173ffffffffffffffffffffffffffffffffffffffff16141562000272576040517f08c379a00000000000000000000000000000000000000000000000000000000081526004016200026990620003ae565b60405180910390fd5b6200028381620000aa60201b60201c565b50565b6000600360009054906101000a900473ffffffffffffffffffffffffffffffffffffffff16905090565b828054620002be9062000403565b90600052602060002090601f016020900481019282620002e257600085556200032e565b82601f10620002fd57805160ff19168380011785556200032e565b828001600101855582156200032e579182015b828111156200032d57825182559160200191906001019062000310565b5b5090506200033d919062000341565b5090565b5b808211156200035c57600081600090555060010162000342565b5090565b60006200036f602683620003f2565b91506200037c8262000468565b604082019050919050565b600062000396602083620003f2565b9150620003a382620004b7565b602082019050919050565b60006020820190508181036000830152620003c98162000360565b9050919050565b60006020820190508181036000830152620003eb8162000387565b9050919050565b600082825260208201905092915050565b600060028204905060018216806200041c57607f821691505b6020821081141562000433576200043262000439565b5b50919050565b7f4e487b7100000000000000000000000000000000000000000000000000000000600052602260045260246000fd5b7f4f776e61626c653a206e6577206f776e657220697320746865207a65726f206160008201527f6464726573730000000000000000000000000000000000000000000000000000602082015250565b7f4f776e61626c653a2063616c6c6572206973206e6f7420746865206f776e6572600082015250565b6138ec80620004f06000396000f3fe6080604052600436106101135760003560e01c80634e1273f4116100a0578063ac12b87e11610064578063ac12b87e146103a1578063b3de019c146103ca578063e985e9c5146103f3578063f242432a14610430578063f2fde38b1461045957610113565b80634e1273f4146102ce5780635c975abb1461030b578063715018a6146103365780638da5cb5b1461034d578063a22cb4651461037857610113565b806316c38b3c116100e757806316c38b3c146101f85780631a0058f5146102215780631b2ef1ca14610260578063265e7bde1461027c5780632eb2c2d6146102a557610113565b8062fdd58e1461011857806301ffc9a7146101555780630e1b91d6146101925780630e89341c146101bb575b600080fd5b34801561012457600080fd5b5061013f600480360381019061013a9190612502565b610482565b60405161014c9190612e54565b60405180910390f35b34801561016157600080fd5b5061017c600480360381019061017791906125e7565b61054b565b6040516101899190612c17565b60405180910390f35b34801561019e57600080fd5b506101b960048036038101906101b49190612641565b61062d565b005b3480156101c757600080fd5b506101e260048036038101906101dd919061269d565b6106d8565b6040516101ef9190612c32565b60405180910390f35b34801561020457600080fd5b5061021f600480360381019061021a91906125ba565b610780565b005b34801561022d57600080fd5b506102486004803603810190610243919061269d565b610819565b60405161025793929190612e98565b60405180910390f35b61027a6004803603810190610275919061274d565b61090c565b005b34801561028857600080fd5b506102a3600480360381019061029e919061274d565b610a96565b005b3480156102b157600080fd5b506102cc60048036038101906102c7919061235c565b610b31565b005b3480156102da57600080fd5b506102f560048036038101906102f09190612542565b610bd2565b6040516103029190612bbe565b60405180910390f35b34801561031757600080fd5b50610320610ceb565b60405161032d9190612c17565b60405180910390f35b34801561034257600080fd5b5061034b610cfe565b005b34801561035957600080fd5b50610362610d86565b60405161036f9190612ae1565b60405180910390f35b34801561038457600080fd5b5061039f600480360381019061039a91906124c2565b610db0565b005b3480156103ad57600080fd5b506103c860048036038101906103c391906126ca565b610dc6565b005b3480156103d657600080fd5b506103f160048036038101906103ec919061274d565b610ebb565b005b3480156103ff57600080fd5b5061041a6004803603810190610415919061231c565b610f56565b6040516104279190612c17565b60405180910390f35b34801561043c57600080fd5b506104576004803603810190610452919061242b565b610fea565b005b34801561046557600080fd5b50610480600480360381019061047b91906122ef565b61108b565b005b60008073ffffffffffffffffffffffffffffffffffffffff168373ffffffffffffffffffffffffffffffffffffffff1614156104f3576040517f08c379a00000000000000000000000000000000000000000000000000000000081526004016104ea90612cb4565b60405180910390fd5b60008083815260200190815260200160002060008473ffffffffffffffffffffffffffffffffffffffff1673ffffffffffffffffffffffffffffffffffffffff16815260200190815260200160002054905092915050565b60007fd9b67a26000000000000000000000000000000000000000000000000000000007bffffffffffffffffffffffffffffffffffffffffffffffffffffffff1916827bffffffffffffffffffffffffffffffffffffffffffffffffffffffff1916148061061657507f0e89341c000000000000000000000000000000000000000000000000000000007bffffffffffffffffffffffffffffffffffffffffffffffffffffffff1916827bffffffffffffffffffffffffffffffffffffffffffffffffffffffff1916145b80610626575061062582611183565b5b9050919050565b6106356111ed565b73ffffffffffffffffffffffffffffffffffffffff16610653610d86565b73ffffffffffffffffffffffffffffffffffffffff16146106a9576040517f08c379a00000000000000000000000000000000000000000000000000000000081526004016106a090612db4565b60405180910390fd5b816005600083815260200190815260200160002060000190805190602001906106d3929190611fc7565b505050565b60606005600083815260200190815260200160002060000180546106fb90613185565b80601f016020809104026020016040519081016040528092919081815260200182805461072790613185565b80156107745780601f1061074957610100808354040283529160200191610774565b820191906000526020600020905b81548152906001019060200180831161075757829003601f168201915b50505050509050919050565b6107886111ed565b73ffffffffffffffffffffffffffffffffffffffff166107a6610d86565b73ffffffffffffffffffffffffffffffffffffffff16146107fc576040517f08c379a00000000000000000000000000000000000000000000000000000000081526004016107f390612db4565b60405180910390fd5b80600360146101000a81548160ff02191690831515021790555050565b6000806000806005600086815260200190815260200160002060405180608001604052908160008201805461084d90613185565b80601f016020809104026020016040519081016040528092919081815260200182805461087990613185565b80156108c65780601f1061089b576101008083540402835291602001916108c6565b820191906000526020600020905b8154815290600101906020018083116108a957829003601f168201915b5050505050815260200160018201548152602001600282015481526020016003820154815250509050806040015181602001518260600151935093509350509193909250565b60001515600360149054906101000a900460ff16151514610962576040517f08c379a000000000000000000000000000000000000000000000000000000000815260040161095990612d94565b60405180910390fd5b8060056000848152602001908152602001600020600301546109849190613075565b34146109c5576040517f08c379a00000000000000000000000000000000000000000000000000000000081526004016109bc90612c94565b60405180910390fd5b600060056000848152602001908152602001600020600101549050600060056000858152602001908152602001600020600201549050818382610a08919061301f565b10610a48576040517f08c379a0000000000000000000000000000000000000000000000000000000008152600401610a3f90612cf4565b60405180910390fd5b82600560008681526020019081526020016000206002016000828254610a6e919061301f565b92505081905550610a90338585604051806020016040528060008152506111f5565b50505050565b610a9e6111ed565b73ffffffffffffffffffffffffffffffffffffffff16610abc610d86565b73ffffffffffffffffffffffffffffffffffffffff1614610b12576040517f08c379a0000000000000000000000000000000000000000000000000000000008152600401610b0990612db4565b60405180910390fd5b8060056000848152602001908152602001600020600101819055505050565b610b396111ed565b73ffffffffffffffffffffffffffffffffffffffff168573ffffffffffffffffffffffffffffffffffffffff161480610b7f5750610b7e85610b796111ed565b610f56565b5b610bbe576040517f08c379a0000000000000000000000000000000000000000000000000000000008152600401610bb590612d54565b60405180910390fd5b610bcb858585858561138b565b5050505050565b60608151835114610c18576040517f08c379a0000000000000000000000000000000000000000000000000000000008152600401610c0f90612df4565b60405180910390fd5b6000835167ffffffffffffffff811115610c3557610c346132be565b5b604051908082528060200260200182016040528015610c635781602001602082028036833780820191505090505b50905060005b8451811015610ce057610cb0858281518110610c8857610c8761328f565b5b6020026020010151858381518110610ca357610ca261328f565b5b6020026020010151610482565b828281518110610cc357610cc261328f565b5b60200260200101818152505080610cd9906131e8565b9050610c69565b508091505092915050565b600360149054906101000a900460ff1681565b610d066111ed565b73ffffffffffffffffffffffffffffffffffffffff16610d24610d86565b73ffffffffffffffffffffffffffffffffffffffff1614610d7a576040517f08c379a0000000000000000000000000000000000000000000000000000000008152600401610d7190612db4565b60405180910390fd5b610d84600061169f565b565b6000600360009054906101000a900473ffffffffffffffffffffffffffffffffffffffff16905090565b610dc2610dbb6111ed565b8383611765565b5050565b610dce6111ed565b73ffffffffffffffffffffffffffffffffffffffff16610dec610d86565b73ffffffffffffffffffffffffffffffffffffffff1614610e42576040517f08c379a0000000000000000000000000000000000000000000000000000000008152600401610e3990612db4565b60405180910390fd5b60405180608001604052808481526020018381526020016000815260200182815250600560008681526020019081526020016000206000820151816000019080519060200190610e93929190611fc7565b5060208201518160010155604082015181600201556060820151816003015590505050505050565b610ec36111ed565b73ffffffffffffffffffffffffffffffffffffffff16610ee1610d86565b73ffffffffffffffffffffffffffffffffffffffff1614610f37576040517f08c379a0000000000000000000000000000000000000000000000000000000008152600401610f2e90612db4565b60405180910390fd5b8060056000848152602001908152602001600020600301819055505050565b6000600160008473ffffffffffffffffffffffffffffffffffffffff1673ffffffffffffffffffffffffffffffffffffffff16815260200190815260200160002060008373ffffffffffffffffffffffffffffffffffffffff1673ffffffffffffffffffffffffffffffffffffffff16815260200190815260200160002060009054906101000a900460ff16905092915050565b610ff26111ed565b73ffffffffffffffffffffffffffffffffffffffff168573ffffffffffffffffffffffffffffffffffffffff1614806110385750611037856110326111ed565b610f56565b5b611077576040517f08c379a000000000000000000000000000000000000000000000000000000000815260040161106e90612d14565b60405180910390fd5b61108485858585856118d2565b5050505050565b6110936111ed565b73ffffffffffffffffffffffffffffffffffffffff166110b1610d86565b73ffffffffffffffffffffffffffffffffffffffff1614611107576040517f08c379a00000000000000000000000000000000000000000000000000000000081526004016110fe90612db4565b60405180910390fd5b600073ffffffffffffffffffffffffffffffffffffffff168173ffffffffffffffffffffffffffffffffffffffff161415611177576040517f08c379a000000000000000000000000000000000000000000000000000000000815260040161116e90612cd4565b60405180910390fd5b6111808161169f565b50565b60007f01ffc9a7000000000000000000000000000000000000000000000000000000007bffffffffffffffffffffffffffffffffffffffffffffffffffffffff1916827bffffffffffffffffffffffffffffffffffffffffffffffffffffffff1916149050919050565b600033905090565b600073ffffffffffffffffffffffffffffffffffffffff168473ffffffffffffffffffffffffffffffffffffffff161415611265576040517f08c379a000000000000000000000000000000000000000000000000000000000815260040161125c90612e34565b60405180910390fd5b600061126f6111ed565b90506112908160008761128188611b54565b61128a88611b54565b87611bce565b8260008086815260200190815260200160002060008773ffffffffffffffffffffffffffffffffffffffff1673ffffffffffffffffffffffffffffffffffffffff16815260200190815260200160002060008282546112ef919061301f565b925050819055508473ffffffffffffffffffffffffffffffffffffffff16600073ffffffffffffffffffffffffffffffffffffffff168273ffffffffffffffffffffffffffffffffffffffff167fc3d58168c5ae7397731d063d5bbf3d657854427343f4c083240f7aacaa2d0f62878760405161136d929190612e6f565b60405180910390a461138481600087878787611bd6565b5050505050565b81518351146113cf576040517f08c379a00000000000000000000000000000000000000000000000000000000081526004016113c690612e14565b60405180910390fd5b600073ffffffffffffffffffffffffffffffffffffffff168473ffffffffffffffffffffffffffffffffffffffff16141561143f576040517f08c379a000000000000000000000000000000000000000000000000000000000815260040161143690612d34565b60405180910390fd5b60006114496111ed565b9050611459818787878787611bce565b60005b845181101561160a57600085828151811061147a5761147961328f565b5b6020026020010151905060008583815181106114995761149861328f565b5b60200260200101519050600080600084815260200190815260200160002060008b73ffffffffffffffffffffffffffffffffffffffff1673ffffffffffffffffffffffffffffffffffffffff1681526020019081526020016000205490508181101561153a576040517f08c379a000000000000000000000000000000000000000000000000000000000815260040161153190612d74565b60405180910390fd5b81810360008085815260200190815260200160002060008c73ffffffffffffffffffffffffffffffffffffffff1673ffffffffffffffffffffffffffffffffffffffff168152602001908152602001600020819055508160008085815260200190815260200160002060008b73ffffffffffffffffffffffffffffffffffffffff1673ffffffffffffffffffffffffffffffffffffffff16815260200190815260200160002060008282546115ef919061301f565b9250508190555050505080611603906131e8565b905061145c565b508473ffffffffffffffffffffffffffffffffffffffff168673ffffffffffffffffffffffffffffffffffffffff168273ffffffffffffffffffffffffffffffffffffffff167f4a39dc06d4c0dbc64b70af90fd698a233a518aa5d07e595d983b8c0526c8f7fb8787604051611681929190612be0565b60405180910390a4611697818787878787611dbd565b505050505050565b6000600360009054906101000a900473ffffffffffffffffffffffffffffffffffffffff16905081600360006101000a81548173ffffffffffffffffffffffffffffffffffffffff021916908373ffffffffffffffffffffffffffffffffffffffff1602179055508173ffffffffffffffffffffffffffffffffffffffff168173ffffffffffffffffffffffffffffffffffffffff167f8be0079c531659141344cd1fd0a4f28419497f9722a3daafe3b4186f6b6457e060405160405180910390a35050565b8173ffffffffffffffffffffffffffffffffffffffff168373ffffffffffffffffffffffffffffffffffffffff1614156117d4576040517f08c379a00000000000000000000000000000000000000000000000000000000081526004016117cb90612dd4565b60405180910390fd5b80600160008573ffffffffffffffffffffffffffffffffffffffff1673ffffffffffffffffffffffffffffffffffffffff16815260200190815260200160002060008473ffffffffffffffffffffffffffffffffffffffff1673ffffffffffffffffffffffffffffffffffffffff16815260200190815260200160002060006101000a81548160ff0219169083151502179055508173ffffffffffffffffffffffffffffffffffffffff168373ffffffffffffffffffffffffffffffffffffffff167f17307eab39ab6107e8899845ad3d59bd9653f200f220920489ca2b5937696c31836040516118c59190612c17565b60405180910390a3505050565b600073ffffffffffffffffffffffffffffffffffffffff168473ffffffffffffffffffffffffffffffffffffffff161415611942576040517f08c379a000000000000000000000000000000000000000000000000000000000815260040161193990612d34565b60405180910390fd5b600061194c6111ed565b905061196c81878761195d88611b54565b61196688611b54565b87611bce565b600080600086815260200190815260200160002060008873ffffffffffffffffffffffffffffffffffffffff1673ffffffffffffffffffffffffffffffffffffffff16815260200190815260200160002054905083811015611a03576040517f08c379a00000000000000000000000000000000000000000000000000000000081526004016119fa90612d74565b60405180910390fd5b83810360008087815260200190815260200160002060008973ffffffffffffffffffffffffffffffffffffffff1673ffffffffffffffffffffffffffffffffffffffff168152602001908152602001600020819055508360008087815260200190815260200160002060008873ffffffffffffffffffffffffffffffffffffffff1673ffffffffffffffffffffffffffffffffffffffff1681526020019081526020016000206000828254611ab8919061301f565b925050819055508573ffffffffffffffffffffffffffffffffffffffff168773ffffffffffffffffffffffffffffffffffffffff168373ffffffffffffffffffffffffffffffffffffffff167fc3d58168c5ae7397731d063d5bbf3d657854427343f4c083240f7aacaa2d0f628888604051611b35929190612e6f565b60405180910390a4611b4b828888888888611bd6565b50505050505050565b60606000600167ffffffffffffffff811115611b7357611b726132be565b5b604051908082528060200260200182016040528015611ba15781602001602082028036833780820191505090505b5090508281600081518110611bb957611bb861328f565b5b60200260200101818152505080915050919050565b505050505050565b611bf58473ffffffffffffffffffffffffffffffffffffffff16611fa4565b15611db5578373ffffffffffffffffffffffffffffffffffffffff1663f23a6e6187878686866040518663ffffffff1660e01b8152600401611c3b959493929190612b64565b602060405180830381600087803b158015611c5557600080fd5b505af1925050508015611c8657506040513d601f19601f82011682018060405250810190611c839190612614565b60015b611d2c57611c926132ed565b806308c379a01415611cef5750611ca76137c4565b80611cb25750611cf1565b806040517f08c379a0000000000000000000000000000000000000000000000000000000008152600401611ce69190612c32565b60405180910390fd5b505b6040517f08c379a0000000000000000000000000000000000000000000000000000000008152600401611d2390612c54565b60405180910390fd5b63f23a6e6160e01b7bffffffffffffffffffffffffffffffffffffffffffffffffffffffff1916817bffffffffffffffffffffffffffffffffffffffffffffffffffffffff191614611db3576040517f08c379a0000000000000000000000000000000000000000000000000000000008152600401611daa90612c74565b60405180910390fd5b505b505050505050565b611ddc8473ffffffffffffffffffffffffffffffffffffffff16611fa4565b15611f9c578373ffffffffffffffffffffffffffffffffffffffff1663bc197c8187878686866040518663ffffffff1660e01b8152600401611e22959493929190612afc565b602060405180830381600087803b158015611e3c57600080fd5b505af1925050508015611e6d57506040513d601f19601f82011682018060405250810190611e6a9190612614565b60015b611f1357611e796132ed565b806308c379a01415611ed65750611e8e6137c4565b80611e995750611ed8565b806040517f08c379a0000000000000000000000000000000000000000000000000000000008152600401611ecd9190612c32565b60405180910390fd5b505b6040517f08c379a0000000000000000000000000000000000000000000000000000000008152600401611f0a90612c54565b60405180910390fd5b63bc197c8160e01b7bffffffffffffffffffffffffffffffffffffffffffffffffffffffff1916817bffffffffffffffffffffffffffffffffffffffffffffffffffffffff191614611f9a576040517f08c379a0000000000000000000000000000000000000000000000000000000008152600401611f9190612c74565b60405180910390fd5b505b505050505050565b6000808273ffffffffffffffffffffffffffffffffffffffff163b119050919050565b828054611fd390613185565b90600052602060002090601f016020900481019282611ff5576000855561203c565b82601f1061200e57805160ff191683800117855561203c565b8280016001018555821561203c579182015b8281111561203b578251825591602001919060010190612020565b5b509050612049919061204d565b5090565b5b8082111561206657600081600090555060010161204e565b5090565b600061207d61207884612ef4565b612ecf565b905080838252602082019050828560208602820111156120a05761209f613314565b5b60005b858110156120d057816120b688826121ce565b8452602084019350602083019250506001810190506120a3565b5050509392505050565b60006120ed6120e884612f20565b612ecf565b905080838252602082019050828560208602820111156121105761210f613314565b5b60005b85811015612140578161212688826122da565b845260208401935060208301925050600181019050612113565b5050509392505050565b600061215d61215884612f4c565b612ecf565b90508281526020810184848401111561217957612178613319565b5b612184848285613143565b509392505050565b600061219f61219a84612f7d565b612ecf565b9050828152602081018484840111156121bb576121ba613319565b5b6121c6848285613143565b509392505050565b6000813590506121dd8161385a565b92915050565b600082601f8301126121f8576121f761330f565b5b813561220884826020860161206a565b91505092915050565b600082601f8301126122265761222561330f565b5b81356122368482602086016120da565b91505092915050565b60008135905061224e81613871565b92915050565b60008135905061226381613888565b92915050565b60008151905061227881613888565b92915050565b600082601f8301126122935761229261330f565b5b81356122a384826020860161214a565b91505092915050565b600082601f8301126122c1576122c061330f565b5b81356122d184826020860161218c565b91505092915050565b6000813590506122e98161389f565b92915050565b60006020828403121561230557612304613323565b5b6000612313848285016121ce565b91505092915050565b6000806040838503121561233357612332613323565b5b6000612341858286016121ce565b9250506020612352858286016121ce565b9150509250929050565b600080600080600060a0868803121561237857612377613323565b5b6000612386888289016121ce565b9550506020612397888289016121ce565b945050604086013567ffffffffffffffff8111156123b8576123b761331e565b5b6123c488828901612211565b935050606086013567ffffffffffffffff8111156123e5576123e461331e565b5b6123f188828901612211565b925050608086013567ffffffffffffffff8111156124125761241161331e565b5b61241e8882890161227e565b9150509295509295909350565b600080600080600060a0868803121561244757612446613323565b5b6000612455888289016121ce565b9550506020612466888289016121ce565b9450506040612477888289016122da565b9350506060612488888289016122da565b925050608086013567ffffffffffffffff8111156124a9576124a861331e565b5b6124b58882890161227e565b9150509295509295909350565b600080604083850312156124d9576124d8613323565b5b60006124e7858286016121ce565b92505060206124f88582860161223f565b9150509250929050565b6000806040838503121561251957612518613323565b5b6000612527858286016121ce565b9250506020612538858286016122da565b9150509250929050565b6000806040838503121561255957612558613323565b5b600083013567ffffffffffffffff8111156125775761257661331e565b5b612583858286016121e3565b925050602083013567ffffffffffffffff8111156125a4576125a361331e565b5b6125b085828601612211565b9150509250929050565b6000602082840312156125d0576125cf613323565b5b60006125de8482850161223f565b91505092915050565b6000602082840312156125fd576125fc613323565b5b600061260b84828501612254565b91505092915050565b60006020828403121561262a57612629613323565b5b600061263884828501612269565b91505092915050565b6000806040838503121561265857612657613323565b5b600083013567ffffffffffffffff8111156126765761267561331e565b5b612682858286016122ac565b9250506020612693858286016122da565b9150509250929050565b6000602082840312156126b3576126b2613323565b5b60006126c1848285016122da565b91505092915050565b600080600080608085870312156126e4576126e3613323565b5b60006126f2878288016122da565b945050602085013567ffffffffffffffff8111156127135761271261331e565b5b61271f878288016122ac565b9350506040612730878288016122da565b9250506060612741878288016122da565b91505092959194509250565b6000806040838503121561276457612763613323565b5b6000612772858286016122da565b9250506020612783858286016122da565b9150509250929050565b60006127998383612ac3565b60208301905092915050565b6127ae816130cf565b82525050565b60006127bf82612fbe565b6127c98185612fec565b93506127d483612fae565b8060005b838110156128055781516127ec888261278d565b97506127f783612fdf565b9250506001810190506127d8565b5085935050505092915050565b61281b816130e1565b82525050565b600061282c82612fc9565b6128368185612ffd565b9350612846818560208601613152565b61284f81613328565b840191505092915050565b600061286582612fd4565b61286f818561300e565b935061287f818560208601613152565b61288881613328565b840191505092915050565b60006128a060348361300e565b91506128ab82613346565b604082019050919050565b60006128c360288361300e565b91506128ce82613395565b604082019050919050565b60006128e660128361300e565b91506128f1826133e4565b602082019050919050565b6000612909602b8361300e565b91506129148261340d565b604082019050919050565b600061292c60268361300e565b91506129378261345c565b604082019050919050565b600061294f603a8361300e565b915061295a826134ab565b604082019050919050565b600061297260298361300e565b915061297d826134fa565b604082019050919050565b600061299560258361300e565b91506129a082613549565b604082019050919050565b60006129b860328361300e565b91506129c382613598565b604082019050919050565b60006129db602a8361300e565b91506129e6826135e7565b604082019050919050565b60006129fe601c8361300e565b9150612a0982613636565b602082019050919050565b6000612a2160208361300e565b9150612a2c8261365f565b602082019050919050565b6000612a4460298361300e565b9150612a4f82613688565b604082019050919050565b6000612a6760298361300e565b9150612a72826136d7565b604082019050919050565b6000612a8a60288361300e565b9150612a9582613726565b604082019050919050565b6000612aad60218361300e565b9150612ab882613775565b604082019050919050565b612acc81613139565b82525050565b612adb81613139565b82525050565b6000602082019050612af660008301846127a5565b92915050565b600060a082019050612b1160008301886127a5565b612b1e60208301876127a5565b8181036040830152612b3081866127b4565b90508181036060830152612b4481856127b4565b90508181036080830152612b588184612821565b90509695505050505050565b600060a082019050612b7960008301886127a5565b612b8660208301876127a5565b612b936040830186612ad2565b612ba06060830185612ad2565b8181036080830152612bb28184612821565b90509695505050505050565b60006020820190508181036000830152612bd881846127b4565b905092915050565b60006040820190508181036000830152612bfa81856127b4565b90508181036020830152612c0e81846127b4565b90509392505050565b6000602082019050612c2c6000830184612812565b92915050565b60006020820190508181036000830152612c4c818461285a565b905092915050565b60006020820190508181036000830152612c6d81612893565b9050919050565b60006020820190508181036000830152612c8d816128b6565b9050919050565b60006020820190508181036000830152612cad816128d9565b9050919050565b60006020820190508181036000830152612ccd816128fc565b9050919050565b60006020820190508181036000830152612ced8161291f565b9050919050565b60006020820190508181036000830152612d0d81612942565b9050919050565b60006020820190508181036000830152612d2d81612965565b9050919050565b60006020820190508181036000830152612d4d81612988565b9050919050565b60006020820190508181036000830152612d6d816129ab565b9050919050565b60006020820190508181036000830152612d8d816129ce565b9050919050565b60006020820190508181036000830152612dad816129f1565b9050919050565b60006020820190508181036000830152612dcd81612a14565b9050919050565b60006020820190508181036000830152612ded81612a37565b9050919050565b60006020820190508181036000830152612e0d81612a5a565b9050919050565b60006020820190508181036000830152612e2d81612a7d565b9050919050565b60006020820190508181036000830152612e4d81612aa0565b9050919050565b6000602082019050612e696000830184612ad2565b92915050565b6000604082019050612e846000830185612ad2565b612e916020830184612ad2565b9392505050565b6000606082019050612ead6000830186612ad2565b612eba6020830185612ad2565b612ec76040830184612ad2565b949350505050565b6000612ed9612eea565b9050612ee582826131b7565b919050565b6000604051905090565b600067ffffffffffffffff821115612f0f57612f0e6132be565b5b602082029050602081019050919050565b600067ffffffffffffffff821115612f3b57612f3a6132be565b5b602082029050602081019050919050565b600067ffffffffffffffff821115612f6757612f666132be565b5b612f7082613328565b9050602081019050919050565b600067ffffffffffffffff821115612f9857612f976132be565b5b612fa182613328565b9050602081019050919050565b6000819050602082019050919050565b600081519050919050565b600081519050919050565b600081519050919050565b6000602082019050919050565b600082825260208201905092915050565b600082825260208201905092915050565b600082825260208201905092915050565b600061302a82613139565b915061303583613139565b9250827fffffffffffffffffffffffffffffffffffffffffffffffffffffffffffffffff0382111561306a57613069613231565b5b828201905092915050565b600061308082613139565b915061308b83613139565b9250817fffffffffffffffffffffffffffffffffffffffffffffffffffffffffffffffff04831182151516156130c4576130c3613231565b5b828202905092915050565b60006130da82613119565b9050919050565b60008115159050919050565b60007fffffffff0000000000000000000000000000000000000000000000000000000082169050919050565b600073ffffffffffffffffffffffffffffffffffffffff82169050919050565b6000819050919050565b82818337600083830152505050565b60005b83811015613170578082015181840152602081019050613155565b8381111561317f576000848401525b50505050565b6000600282049050600182168061319d57607f821691505b602082108114156131b1576131b0613260565b5b50919050565b6131c082613328565b810181811067ffffffffffffffff821117156131df576131de6132be565b5b80604052505050565b60006131f382613139565b91507fffffffffffffffffffffffffffffffffffffffffffffffffffffffffffffffff82141561322657613225613231565b5b600182019050919050565b7f4e487b7100000000000000000000000000000000000000000000000000000000600052601160045260246000fd5b7f4e487b7100000000000000000000000000000000000000000000000000000000600052602260045260246000fd5b7f4e487b7100000000000000000000000000000000000000000000000000000000600052603260045260246000fd5b7f4e487b7100000000000000000000000000000000000000000000000000000000600052604160045260246000fd5b600060033d111561330c5760046000803e613309600051613339565b90505b90565b600080fd5b600080fd5b600080fd5b600080fd5b600080fd5b6000601f19601f8301169050919050565b60008160e01c9050919050565b7f455243313135353a207472616e7366657220746f206e6f6e204552433131353560008201527f526563656976657220696d706c656d656e746572000000000000000000000000602082015250565b7f455243313135353a204552433131353552656365697665722072656a6563746560008201527f6420746f6b656e73000000000000000000000000000000000000000000000000602082015250565b7f4e6f7420656e6f756768742066756e64732e0000000000000000000000000000600082015250565b7f455243313135353a2062616c616e636520717565727920666f7220746865207a60008201527f65726f2061646472657373000000000000000000000000000000000000000000602082015250565b7f4f776e61626c653a206e6577206f776e657220697320746865207a65726f206160008201527f6464726573730000000000000000000000000000000000000000000000000000602082015250565b7f53616c6520697320616c6d6f737420646f6e6520616e6420776520646f6e277460008201527f206861766520656e6f7567687420746f6b656e73206c6566742e000000000000602082015250565b7f455243313135353a2063616c6c6572206973206e6f74206f776e6572206e6f7260008201527f20617070726f7665640000000000000000000000000000000000000000000000602082015250565b7f455243313135353a207472616e7366657220746f20746865207a65726f20616460008201527f6472657373000000000000000000000000000000000000000000000000000000602082015250565b7f455243313135353a207472616e736665722063616c6c6572206973206e6f742060008201527f6f776e6572206e6f7220617070726f7665640000000000000000000000000000602082015250565b7f455243313135353a20696e73756666696369656e742062616c616e636520666f60008201527f72207472616e7366657200000000000000000000000000000000000000000000602082015250565b7f536f7272792074686520636f6e74726163742069732070617573656400000000600082015250565b7f4f776e61626c653a2063616c6c6572206973206e6f7420746865206f776e6572600082015250565b7f455243313135353a2073657474696e6720617070726f76616c2073746174757360008201527f20666f722073656c660000000000000000000000000000000000000000000000602082015250565b7f455243313135353a206163636f756e747320616e6420696473206c656e67746860008201527f206d69736d617463680000000000000000000000000000000000000000000000602082015250565b7f455243313135353a2069647320616e6420616d6f756e7473206c656e6774682060008201527f6d69736d61746368000000000000000000000000000000000000000000000000602082015250565b7f455243313135353a206d696e7420746f20746865207a65726f2061646472657360008201527f7300000000000000000000000000000000000000000000000000000000000000602082015250565b600060443d10156137d457613857565b6137dc612eea565b60043d036004823e80513d602482011167ffffffffffffffff82111715613804575050613857565b808201805167ffffffffffffffff8111156138225750505050613857565b80602083010160043d03850181111561383f575050505050613857565b61384e826020018501866131b7565b82955050505050505b90565b613863816130cf565b811461386e57600080fd5b50565b61387a816130e1565b811461388557600080fd5b50565b613891816130ed565b811461389c57600080fd5b50565b6138a881613139565b81146138b357600080fd5b5056fea26469706673582212207b9470b53ceddc6c7453f28ae2e16ef82989d5540ec05e78c589afaf2ff49e6464736f6c63430008070033",
  "linkReferences": {},
  "deployedLinkReferences": {}
}